{
  "_format": "hh-sol-artifact-1",
  "contractName": "Marketplace",
  "sourceName": "src/backend/contracts/Marketplace.sol",
  "abi": [
    {
      "inputs": [
        {
          "internalType": "uint256",
          "name": "_feePercent",
          "type": "uint256"
        }
      ],
      "stateMutability": "nonpayable",
      "type": "constructor"
    },
    {
      "anonymous": false,
      "inputs": [
        {
          "indexed": false,
          "internalType": "uint256",
          "name": "itemId",
          "type": "uint256"
        },
        {
          "indexed": true,
          "internalType": "address",
          "name": "nft",
          "type": "address"
        },
        {
          "indexed": false,
          "internalType": "uint256",
          "name": "tokenId",
          "type": "uint256"
        },
        {
          "indexed": false,
          "internalType": "uint256",
          "name": "price",
          "type": "uint256"
        },
        {
          "indexed": true,
          "internalType": "address",
          "name": "seller",
          "type": "address"
        },
        {
          "indexed": true,
          "internalType": "address",
          "name": "buyer",
          "type": "address"
        }
      ],
      "name": "Bought",
      "type": "event"
    },
    {
      "anonymous": false,
      "inputs": [
        {
          "indexed": false,
          "internalType": "uint256",
          "name": "itemId",
          "type": "uint256"
        },
        {
          "indexed": true,
          "internalType": "address",
          "name": "nft",
          "type": "address"
        },
        {
          "indexed": false,
          "internalType": "uint256",
          "name": "tokenId",
          "type": "uint256"
        },
        {
          "indexed": false,
          "internalType": "uint256",
          "name": "price",
          "type": "uint256"
        },
        {
          "indexed": true,
          "internalType": "address",
          "name": "seller",
          "type": "address"
        }
      ],
      "name": "Offered",
      "type": "event"
    },
    {
      "anonymous": false,
      "inputs": [
        {
          "indexed": false,
          "internalType": "uint256",
          "name": "itemId",
          "type": "uint256"
        },
        {
          "indexed": false,
          "internalType": "uint256",
          "name": "price",
          "type": "uint256"
        }
      ],
      "name": "Resold",
      "type": "event"
    },
    {
      "stateMutability": "payable",
      "type": "fallback"
    },
    {
      "inputs": [],
      "name": "feeAccount",
      "outputs": [
        {
          "internalType": "address payable",
          "name": "",
          "type": "address"
        }
      ],
      "stateMutability": "view",
      "type": "function"
    },
    {
      "inputs": [],
      "name": "feePercent",
      "outputs": [
        {
          "internalType": "uint256",
          "name": "",
          "type": "uint256"
        }
      ],
      "stateMutability": "view",
      "type": "function"
    },
    {
      "inputs": [
        {
          "internalType": "uint256",
          "name": "_itemId",
          "type": "uint256"
        }
      ],
      "name": "getTotalPrice",
      "outputs": [
        {
          "internalType": "uint256",
          "name": "",
          "type": "uint256"
        }
      ],
      "stateMutability": "view",
      "type": "function"
    },
    {
      "inputs": [],
      "name": "itemCount",
      "outputs": [
        {
          "internalType": "uint256",
          "name": "",
          "type": "uint256"
        }
      ],
      "stateMutability": "view",
      "type": "function"
    },
    {
      "inputs": [
        {
          "internalType": "uint256",
          "name": "",
          "type": "uint256"
        }
      ],
      "name": "items",
      "outputs": [
        {
          "internalType": "uint256",
          "name": "itemId",
          "type": "uint256"
        },
        {
          "internalType": "contract IERC721",
          "name": "nft",
          "type": "address"
        },
        {
          "internalType": "uint256",
          "name": "tokenId",
          "type": "uint256"
        },
        {
          "internalType": "uint256",
          "name": "price",
          "type": "uint256"
        },
        {
          "internalType": "address payable",
          "name": "seller",
          "type": "address"
        },
        {
          "internalType": "bool",
          "name": "sold",
          "type": "bool"
        }
      ],
      "stateMutability": "view",
      "type": "function"
    },
    {
      "inputs": [
        {
          "internalType": "contract IERC721",
          "name": "_nft",
          "type": "address"
        },
        {
          "internalType": "uint256",
          "name": "_tokenId",
          "type": "uint256"
        },
        {
          "internalType": "uint256",
          "name": "_price",
          "type": "uint256"
        }
      ],
      "name": "makeItem",
      "outputs": [
        {
          "internalType": "uint256",
          "name": "",
          "type": "uint256"
        },
        {
          "internalType": "address",
          "name": "",
          "type": "address"
        },
        {
          "internalType": "address",
          "name": "",
          "type": "address"
        }
      ],
      "stateMutability": "nonpayable",
      "type": "function"
    },
    {
      "inputs": [
        {
          "internalType": "uint256",
          "name": "_itemId",
          "type": "uint256"
        }
      ],
      "name": "purchaseItem",
      "outputs": [],
      "stateMutability": "payable",
      "type": "function"
    },
    {
      "inputs": [
        {
          "internalType": "uint256",
          "name": "_itemId",
          "type": "uint256"
        },
        {
          "internalType": "uint256",
          "name": "_newPrice",
          "type": "uint256"
        }
      ],
      "name": "resellItem",
      "outputs": [],
      "stateMutability": "nonpayable",
      "type": "function"
    }
  ],
  "bytecode": "0x60c06040523480156200001157600080fd5b50604051620016313803806200163183398181016040528101906200003791906200009c565b60016000819055503373ffffffffffffffffffffffffffffffffffffffff1660808173ffffffffffffffffffffffffffffffffffffffff1660601b815250508060a0818152505050620000ec565b6000815190506200009681620000d2565b92915050565b600060208284031215620000af57600080fd5b6000620000bf8482850162000085565b91505092915050565b6000819050919050565b620000dd81620000c8565b8114620000e957600080fd5b50565b60805160601c60a05161150e620001236000396000818161026b015261031c0152600081816102410152610542015261150e6000f3fe60806040526004361061007f5760003560e01c8063ca7dd3751161004e578063ca7dd3751461017e578063d38ea5bf146101bb578063f9eccb3b146101d7578063fa00afc71461020057610080565b806365e17c9d146100bb5780636bfb0d01146100e65780637fd6f15c14610111578063bfb231d21461013c57610080565b5b6040517f08c379a00000000000000000000000000000000000000000000000000000000081526004016100b290610f09565b60405180910390fd5b3480156100c757600080fd5b506100d061023f565b6040516100dd9190610e77565b60405180910390f35b3480156100f257600080fd5b506100fb610263565b6040516101089190610fa9565b60405180910390f35b34801561011d57600080fd5b50610126610269565b6040516101339190610fa9565b60405180910390f35b34801561014857600080fd5b50610163600480360381019061015e9190610cd2565b61028d565b60405161017596959493929190610ffb565b60405180910390f35b34801561018a57600080fd5b506101a560048036038101906101a09190610cd2565b610316565b6040516101b29190610fa9565b60405180910390f35b6101d560048036038101906101d09190610cd2565b610379565b005b3480156101e357600080fd5b506101fe60048036038101906101f99190610cfb565b610747565b005b34801561020c57600080fd5b5061022760048036038101906102229190610c83565b610973565b60405161023693929190610fc4565b60405180910390f35b7f000000000000000000000000000000000000000000000000000000000000000081565b60015481565b7f000000000000000000000000000000000000000000000000000000000000000081565b60026020528060005260406000206000915090508060000154908060010160009054906101000a900473ffffffffffffffffffffffffffffffffffffffff16908060020154908060030154908060040160009054906101000a900473ffffffffffffffffffffffffffffffffffffffff16908060040160149054906101000a900460ff16905086565b600060647f0000000000000000000000000000000000000000000000000000000000000000606461034791906110cd565b60026000858152602001908152602001600020600301546103689190611154565b6103729190611123565b9050919050565b600260005414156103bf576040517f08c379a00000000000000000000000000000000000000000000000000000000081526004016103b690610f69565b60405180910390fd5b600260008190555060006103d282610316565b905060006002600084815260200190815260200160002090506000831180156103fd57506001548311155b61043c576040517f08c379a000000000000000000000000000000000000000000000000000000000815260040161043390610f49565b60405180910390fd5b8134101561047f576040517f08c379a000000000000000000000000000000000000000000000000000000000815260040161047690610f29565b60405180910390fd5b8060040160149054906101000a900460ff16156104d1576040517f08c379a00000000000000000000000000000000000000000000000000000000081526004016104c890610f89565b60405180910390fd5b8060040160009054906101000a900473ffffffffffffffffffffffffffffffffffffffff1673ffffffffffffffffffffffffffffffffffffffff166108fc82600301549081150290604051600060405180830381858888f1935050505015801561053f573d6000803e3d6000fd5b507f000000000000000000000000000000000000000000000000000000000000000073ffffffffffffffffffffffffffffffffffffffff166108fc82600301548461058a91906111ae565b9081150290604051600060405180830381858888f193505050501580156105b5573d6000803e3d6000fd5b5060018160040160146101000a81548160ff0219169083151502179055508060010160009054906101000a900473ffffffffffffffffffffffffffffffffffffffff1673ffffffffffffffffffffffffffffffffffffffff166323b872dd303384600201546040518463ffffffff1660e01b815260040161063893929190610e92565b600060405180830381600087803b15801561065257600080fd5b505af1158015610666573d6000803e3d6000fd5b505050503373ffffffffffffffffffffffffffffffffffffffff168160040160009054906101000a900473ffffffffffffffffffffffffffffffffffffffff1673ffffffffffffffffffffffffffffffffffffffff168260010160009054906101000a900473ffffffffffffffffffffffffffffffffffffffff1673ffffffffffffffffffffffffffffffffffffffff167f8b4c9c8a607d67b321582dd8461041b1dc2ceeca70c8b7f37f8e02095cf2e76d868560020154866003015460405161073293929190611085565b60405180910390a45050600160008190555050565b6002600054141561078d576040517f08c379a000000000000000000000000000000000000000000000000000000000815260040161078490610f69565b60405180910390fd5b600260008190555060006002600084815260200190815260200160002090506000831180156107be57506001548311155b6107fd576040517f08c379a00000000000000000000000000000000000000000000000000000000081526004016107f490610f49565b60405180910390fd5b8060040160009054906101000a900473ffffffffffffffffffffffffffffffffffffffff1673ffffffffffffffffffffffffffffffffffffffff163373ffffffffffffffffffffffffffffffffffffffff161461088f576040517f08c379a000000000000000000000000000000000000000000000000000000000815260040161088690610ee9565b60405180910390fd5b8060040160149054906101000a900460ff16156108e1576040517f08c379a00000000000000000000000000000000000000000000000000000000081526004016108d890610f89565b60405180910390fd5b60008211610924576040517f08c379a000000000000000000000000000000000000000000000000000000000815260040161091b90610ec9565b60405180910390fd5b8181600301819055507fc49818a2c89c11ad344f86271d0777e13ef34d5c8ee610ef36ab426b28cb455f838360405161095e92919061105c565b60405180910390a15060016000819055505050565b6000806000600260005414156109be576040517f08c379a00000000000000000000000000000000000000000000000000000000081526004016109b590610f69565b60405180910390fd5b600260008190555060008411610a09576040517f08c379a0000000000000000000000000000000000000000000000000000000008152600401610a0090610ec9565b60405180910390fd5b60016000815480929190610a1c90611272565b91905055508573ffffffffffffffffffffffffffffffffffffffff166323b872dd3330886040518463ffffffff1660e01b8152600401610a5e93929190610e92565b600060405180830381600087803b158015610a7857600080fd5b505af1158015610a8c573d6000803e3d6000fd5b505050506040518060c0016040528060015481526020018773ffffffffffffffffffffffffffffffffffffffff1681526020018681526020018581526020013373ffffffffffffffffffffffffffffffffffffffff168152602001600015158152506002600060015481526020019081526020016000206000820151816000015560208201518160010160006101000a81548173ffffffffffffffffffffffffffffffffffffffff021916908373ffffffffffffffffffffffffffffffffffffffff160217905550604082015181600201556060820151816003015560808201518160040160006101000a81548173ffffffffffffffffffffffffffffffffffffffff021916908373ffffffffffffffffffffffffffffffffffffffff16021790555060a08201518160040160146101000a81548160ff0219169083151502179055509050503373ffffffffffffffffffffffffffffffffffffffff168673ffffffffffffffffffffffffffffffffffffffff167f655a0cf9c8db81512be9a76dc1c5ae5380b8816ce6ad659cd61b715e2999d59a6001548888604051610c3593929190611085565b60405180910390a36001543330925092509250600160008190555093509350939050565b600081359050610c68816114aa565b92915050565b600081359050610c7d816114c1565b92915050565b600080600060608486031215610c9857600080fd5b6000610ca686828701610c59565b9350506020610cb786828701610c6e565b9250506040610cc886828701610c6e565b9150509250925092565b600060208284031215610ce457600080fd5b6000610cf284828501610c6e565b91505092915050565b60008060408385031215610d0e57600080fd5b6000610d1c85828601610c6e565b9250506020610d2d85828601610c6e565b9150509250929050565b610d40816111f4565b82525050565b610d4f816111e2565b82525050565b610d5e81611206565b82525050565b610d6d8161124e565b82525050565b6000610d80601f836110bc565b9150610d8b82611319565b602082019050919050565b6000610da36023836110bc565b9150610dae82611342565b604082019050919050565b6000610dc66021836110bc565b9150610dd182611391565b604082019050919050565b6000610de96033836110bc565b9150610df4826113e0565b604082019050919050565b6000610e0c6012836110bc565b9150610e178261142f565b602082019050919050565b6000610e2f601f836110bc565b9150610e3a82611458565b602082019050919050565b6000610e526011836110bc565b9150610e5d82611481565b602082019050919050565b610e7181611244565b82525050565b6000602082019050610e8c6000830184610d37565b92915050565b6000606082019050610ea76000830186610d46565b610eb46020830185610d46565b610ec16040830184610e68565b949350505050565b60006020820190508181036000830152610ee281610d73565b9050919050565b60006020820190508181036000830152610f0281610d96565b9050919050565b60006020820190508181036000830152610f2281610db9565b9050919050565b60006020820190508181036000830152610f4281610ddc565b9050919050565b60006020820190508181036000830152610f6281610dff565b9050919050565b60006020820190508181036000830152610f8281610e22565b9050919050565b60006020820190508181036000830152610fa281610e45565b9050919050565b6000602082019050610fbe6000830184610e68565b92915050565b6000606082019050610fd96000830186610e68565b610fe66020830185610d46565b610ff36040830184610d46565b949350505050565b600060c0820190506110106000830189610e68565b61101d6020830188610d64565b61102a6040830187610e68565b6110376060830186610e68565b6110446080830185610d37565b61105160a0830184610d55565b979650505050505050565b60006040820190506110716000830185610e68565b61107e6020830184610e68565b9392505050565b600060608201905061109a6000830186610e68565b6110a76020830185610e68565b6110b46040830184610e68565b949350505050565b600082825260208201905092915050565b60006110d882611244565b91506110e383611244565b9250827fffffffffffffffffffffffffffffffffffffffffffffffffffffffffffffffff03821115611118576111176112bb565b5b828201905092915050565b600061112e82611244565b915061113983611244565b925082611149576111486112ea565b5b828204905092915050565b600061115f82611244565b915061116a83611244565b9250817fffffffffffffffffffffffffffffffffffffffffffffffffffffffffffffffff04831182151516156111a3576111a26112bb565b5b828202905092915050565b60006111b982611244565b91506111c483611244565b9250828210156111d7576111d66112bb565b5b828203905092915050565b60006111ed82611224565b9050919050565b60006111ff82611224565b9050919050565b60008115159050919050565b600061121d826111e2565b9050919050565b600073ffffffffffffffffffffffffffffffffffffffff82169050919050565b6000819050919050565b600061125982611260565b9050919050565b600061126b82611224565b9050919050565b600061127d82611244565b91507fffffffffffffffffffffffffffffffffffffffffffffffffffffffffffffffff8214156112b0576112af6112bb565b5b600182019050919050565b7f4e487b7100000000000000000000000000000000000000000000000000000000600052601160045260246000fd5b7f4e487b7100000000000000000000000000000000000000000000000000000000600052601260045260246000fd5b7f5072696365206d7573742062652067726561746572207468616e207a65726f00600082015250565b7f4f6e6c79207468652073656c6c65722063616e20726573656c6c20746865206960008201527f74656d0000000000000000000000000000000000000000000000000000000000602082015250565b7f46616c6c6261636b2066756e6374696f6e206e6f7420696d706c656d656e746560008201527f6400000000000000000000000000000000000000000000000000000000000000602082015250565b7f4e6f7420656e6f75676820657468657220746f20636f766572206974656d207060008201527f7269636520616e64206d61726b65742066656500000000000000000000000000602082015250565b7f4974656d20646f65736e27742065786973740000000000000000000000000000600082015250565b7f5265656e7472616e637947756172643a207265656e7472616e742063616c6c00600082015250565b7f4974656d20616c726561647920736f6c64000000000000000000000000000000600082015250565b6114b381611212565b81146114be57600080fd5b50565b6114ca81611244565b81146114d557600080fd5b5056fea2646970667358221220e0abccd70152746e08f9230fe049f7be484ca54943a66f7e99cbecf6c832e9b364736f6c63430008040033",
  "linkReferences": {},
  "deployedLinkReferences": {}
}